{
  "_format": "hh-sol-artifact-1",
  "contractName": "Staking",
  "sourceName": "contracts/Staking.sol",
  "abi": [
    {
      "inputs": [],
      "stateMutability": "payable",
      "type": "constructor"
    },
    {
      "inputs": [
        {
          "internalType": "address",
          "name": "",
          "type": "address"
        },
        {
          "internalType": "uint256",
          "name": "",
          "type": "uint256"
        }
      ],
      "name": "addressToAllPositionIds",
      "outputs": [
        {
          "internalType": "uint256",
          "name": "",
          "type": "uint256"
        }
      ],
      "stateMutability": "view",
      "type": "function"
    },
    {
      "inputs": [
        {
          "internalType": "uint256",
          "name": "positionId",
          "type": "uint256"
        },
        {
          "internalType": "uint256",
          "name": "newUnLockDate",
          "type": "uint256"
        }
      ],
      "name": "changeUnlockDate",
      "outputs": [],
      "stateMutability": "nonpayable",
      "type": "function"
    },
    {
      "inputs": [
        {
          "internalType": "uint256",
          "name": "positionId",
          "type": "uint256"
        }
      ],
      "name": "closePosition",
      "outputs": [],
      "stateMutability": "nonpayable",
      "type": "function"
    },
    {
      "inputs": [],
      "name": "currentPositionId",
      "outputs": [
        {
          "internalType": "uint256",
          "name": "",
          "type": "uint256"
        }
      ],
      "stateMutability": "view",
      "type": "function"
    },
    {
      "inputs": [
        {
          "internalType": "address",
          "name": "walletAddress",
          "type": "address"
        }
      ],
      "name": "getAllPositionIdsOfAddress",
      "outputs": [
        {
          "internalType": "uint256[]",
          "name": "",
          "type": "uint256[]"
        }
      ],
      "stateMutability": "view",
      "type": "function"
    },
    {
      "inputs": [
        {
          "internalType": "uint256",
          "name": "numDays",
          "type": "uint256"
        }
      ],
      "name": "getInterestRate",
      "outputs": [
        {
          "internalType": "uint256",
          "name": "",
          "type": "uint256"
        }
      ],
      "stateMutability": "view",
      "type": "function"
    },
    {
      "inputs": [],
      "name": "getLockPeriods",
      "outputs": [
        {
          "internalType": "uint256[]",
          "name": "",
          "type": "uint256[]"
        }
      ],
      "stateMutability": "view",
      "type": "function"
    },
    {
      "inputs": [
        {
          "internalType": "uint256",
          "name": "positionId",
          "type": "uint256"
        }
      ],
      "name": "getPositionById",
      "outputs": [
        {
          "components": [
            {
              "internalType": "uint256",
              "name": "positionId",
              "type": "uint256"
            },
            {
              "internalType": "address",
              "name": "walletAddress",
              "type": "address"
            },
            {
              "internalType": "uint256",
              "name": "createdDate",
              "type": "uint256"
            },
            {
              "internalType": "uint256",
              "name": "unlockDate",
              "type": "uint256"
            },
            {
              "internalType": "uint256",
              "name": "percentInterest",
              "type": "uint256"
            },
            {
              "internalType": "uint256",
              "name": "weiStaked",
              "type": "uint256"
            },
            {
              "internalType": "uint256",
              "name": "weiInterest",
              "type": "uint256"
            },
            {
              "internalType": "bool",
              "name": "open",
              "type": "bool"
            }
          ],
          "internalType": "struct Staking.Position",
          "name": "",
          "type": "tuple"
        }
      ],
      "stateMutability": "view",
      "type": "function"
    },
    {
      "inputs": [
        {
          "internalType": "uint256",
          "name": "",
          "type": "uint256"
        }
      ],
      "name": "lockPeriods",
      "outputs": [
        {
          "internalType": "uint256",
          "name": "",
          "type": "uint256"
        }
      ],
      "stateMutability": "view",
      "type": "function"
    },
    {
      "inputs": [
        {
          "internalType": "uint256",
          "name": "numDays",
          "type": "uint256"
        },
        {
          "internalType": "uint256",
          "name": "basisPoints",
          "type": "uint256"
        }
      ],
      "name": "modifyLockPeriods",
      "outputs": [],
      "stateMutability": "nonpayable",
      "type": "function"
    },
    {
      "inputs": [],
      "name": "owner",
      "outputs": [
        {
          "internalType": "address",
          "name": "",
          "type": "address"
        }
      ],
      "stateMutability": "view",
      "type": "function"
    },
    {
      "inputs": [
        {
          "internalType": "uint256",
          "name": "",
          "type": "uint256"
        }
      ],
      "name": "positions",
      "outputs": [
        {
          "internalType": "uint256",
          "name": "positionId",
          "type": "uint256"
        },
        {
          "internalType": "address",
          "name": "walletAddress",
          "type": "address"
        },
        {
          "internalType": "uint256",
          "name": "createdDate",
          "type": "uint256"
        },
        {
          "internalType": "uint256",
          "name": "unlockDate",
          "type": "uint256"
        },
        {
          "internalType": "uint256",
          "name": "percentInterest",
          "type": "uint256"
        },
        {
          "internalType": "uint256",
          "name": "weiStaked",
          "type": "uint256"
        },
        {
          "internalType": "uint256",
          "name": "weiInterest",
          "type": "uint256"
        },
        {
          "internalType": "bool",
          "name": "open",
          "type": "bool"
        }
      ],
      "stateMutability": "view",
      "type": "function"
    },
    {
      "inputs": [
        {
          "internalType": "uint256",
          "name": "numDays",
          "type": "uint256"
        }
      ],
      "name": "stakeEthers",
      "outputs": [],
      "stateMutability": "payable",
      "type": "function"
    },
    {
      "inputs": [
        {
          "internalType": "uint256",
          "name": "",
          "type": "uint256"
        }
      ],
      "name": "tiers",
      "outputs": [
        {
          "internalType": "uint256",
          "name": "",
          "type": "uint256"
        }
      ],
      "stateMutability": "view",
      "type": "function"
    }
  ],
  "bytecode": "0x6080604052336000806101000a81548173ffffffffffffffffffffffffffffffffffffffff021916908373ffffffffffffffffffffffffffffffffffffffff16021790555060006009819055506102bc600c6000601e8152602001908152602001600020819055506103e8600c6000605a8152602001908152602001600020819055506105dc600c600060b4815260200190815260200160002081905550600d601e9080600181540180825580915050600190039060005260206000200160009091909190915055600d605a9080600181540180825580915050600190039060005260206000200160009091909190915055600d60b4908060018154018082558091505060019003906000526020600020016000909190919091505561150f8061012a6000396000f3fe6080604052600436106100dd5760003560e01c806399fbab881161007f578063a2a24e9311610059578063a2a24e9314610301578063b0f0475b1461031d578063b838ec8614610346578063c7c9d05514610383576100dd565b806399fbab88146102575780639a84ba871461029b578063a126d601146102d8576100dd565b80631131c8cd116100bb5780631131c8cd1461019957806341ee13be146101c45780634c8f2a78146101ef5780638da5cb5b1461022c576100dd565b8063039af9eb146100e25780630c196a741461011f57806310c66c821461015c575b600080fd5b3480156100ee57600080fd5b5061010960048036038101906101049190610d54565b6103ac565b6040516101169190610d90565b60405180910390f35b34801561012b57600080fd5b5061014660048036038101906101419190610d54565b6103c4565b6040516101539190610d90565b60405180910390f35b34801561016857600080fd5b50610183600480360381019061017e9190610e09565b6103e1565b6040516101909190610ef4565b60405180910390f35b3480156101a557600080fd5b506101ae610478565b6040516101bb9190610d90565b60405180910390f35b3480156101d057600080fd5b506101d961047e565b6040516101e69190610ef4565b60405180910390f35b3480156101fb57600080fd5b5061021660048036038101906102119190610d54565b6104d6565b6040516102239190610d90565b60405180910390f35b34801561023857600080fd5b506102416104fa565b60405161024e9190610f25565b60405180910390f35b34801561026357600080fd5b5061027e60048036038101906102799190610d54565b61051e565b604051610292989796959493929190610f5b565b60405180910390f35b3480156102a757600080fd5b506102c260048036038101906102bd9190610fd9565b610593565b6040516102cf9190610d90565b60405180910390f35b3480156102e457600080fd5b506102ff60048036038101906102fa9190610d54565b6105c4565b005b61031b60048036038101906103169190610d54565b610809565b005b34801561032957600080fd5b50610344600480360381019061033f9190611019565b610a3d565b005b34801561035257600080fd5b5061036d60048036038101906103689190610d54565b610b10565b60405161037a9190611119565b60405180910390f35b34801561038f57600080fd5b506103aa60048036038101906103a59190611019565b610beb565b005b600c6020528060005260406000206000915090505481565b6000600c6000838152602001908152602001600020549050919050565b6060600b60008373ffffffffffffffffffffffffffffffffffffffff1673ffffffffffffffffffffffffffffffffffffffff16815260200190815260200160002080548060200260200160405190810160405280929190818152602001828054801561046c57602002820191906000526020600020905b815481526020019060010190808311610458575b50505050509050919050565b60095481565b6060600d8054806020026020016040519081016040528092919081815260200182805480156104cc57602002820191906000526020600020905b8154815260200190600101908083116104b8575b5050505050905090565b600d81815481106104e657600080fd5b906000526020600020016000915090505481565b60008054906101000a900473ffffffffffffffffffffffffffffffffffffffff1681565b600a6020528060005260406000206000915090508060000154908060010160009054906101000a900473ffffffffffffffffffffffffffffffffffffffff16908060020154908060030154908060040154908060050154908060060154908060070160009054906101000a900460ff16905088565b600b60205281600052604060002081815481106105af57600080fd5b90600052602060002001600091509150505481565b3373ffffffffffffffffffffffffffffffffffffffff16600a600083815260200190815260200160002060010160009054906101000a900473ffffffffffffffffffffffffffffffffffffffff1673ffffffffffffffffffffffffffffffffffffffff1614610668576040517f08c379a000000000000000000000000000000000000000000000000000000000815260040161065f906111b8565b60405180910390fd5b60011515600a600083815260200190815260200160002060070160009054906101000a900460ff161515146106d2576040517f08c379a00000000000000000000000000000000000000000000000000000000081526004016106c990611224565b60405180910390fd5b6000600a600083815260200190815260200160002060070160006101000a81548160ff021916908315150217905550600a6000828152602001908152602001600020600301544211156107a8576000600a600083815260200190815260200160002060060154600a6000848152602001908152602001600020600501546107599190611273565b90503373ffffffffffffffffffffffffffffffffffffffff166108fc829081150290604051600060405180830381858888f193505050501580156107a1573d6000803e3d6000fd5b5050610806565b3373ffffffffffffffffffffffffffffffffffffffff166108fc600a6000848152602001908152602001600020600501549081150290604051600060405180830381858888f19350505050158015610804573d6000803e3d6000fd5b505b50565b6000600c6000838152602001908152602001600020541161085f576040517f08c379a0000000000000000000000000000000000000000000000000000000008152600401610856906112f3565b60405180910390fd5b60405180610100016040528060095481526020013373ffffffffffffffffffffffffffffffffffffffff16815260200142815260200162015180836108a49190611313565b426108af9190611273565b8152602001600c60008481526020019081526020016000205481526020013481526020016108f1600c6000858152602001908152602001600020548434610c98565b815260200160011515815250600a600060095481526020019081526020016000206000820151816000015560208201518160010160006101000a81548173ffffffffffffffffffffffffffffffffffffffff021916908373ffffffffffffffffffffffffffffffffffffffff16021790555060408201518160020155606082015181600301556080820151816004015560a0820151816005015560c0820151816006015560e08201518160070160006101000a81548160ff021916908315150217905550905050600b60003373ffffffffffffffffffffffffffffffffffffffff1673ffffffffffffffffffffffffffffffffffffffff1681526020019081526020016000206009549080600181540180825580915050600190039060005260206000200160009091909190915055600160096000828254610a339190611273565b9250508190555050565b3373ffffffffffffffffffffffffffffffffffffffff1660008054906101000a900473ffffffffffffffffffffffffffffffffffffffff1673ffffffffffffffffffffffffffffffffffffffff1614610acb576040517f08c379a0000000000000000000000000000000000000000000000000000000008152600401610ac2906113c7565b60405180910390fd5b80600c600084815260200190815260200160002081905550600d8290806001815401808255809150506001900390600052602060002001600090919091909150555050565b610b18610cbc565b600a600083815260200190815260200160002060405180610100016040529081600082015481526020016001820160009054906101000a900473ffffffffffffffffffffffffffffffffffffffff1673ffffffffffffffffffffffffffffffffffffffff1673ffffffffffffffffffffffffffffffffffffffff16815260200160028201548152602001600382015481526020016004820154815260200160058201548152602001600682015481526020016007820160009054906101000a900460ff1615151515815250509050919050565b3373ffffffffffffffffffffffffffffffffffffffff1660008054906101000a900473ffffffffffffffffffffffffffffffffffffffff1673ffffffffffffffffffffffffffffffffffffffff1614610c79576040517f08c379a0000000000000000000000000000000000000000000000000000000008152600401610c7090611459565b60405180910390fd5b80600a6000848152602001908152602001600020600301819055505050565b60006127108285610ca99190611313565b610cb391906114a8565b90509392505050565b60405180610100016040528060008152602001600073ffffffffffffffffffffffffffffffffffffffff16815260200160008152602001600081526020016000815260200160008152602001600081526020016000151581525090565b600080fd5b6000819050919050565b610d3181610d1e565b8114610d3c57600080fd5b50565b600081359050610d4e81610d28565b92915050565b600060208284031215610d6a57610d69610d19565b5b6000610d7884828501610d3f565b91505092915050565b610d8a81610d1e565b82525050565b6000602082019050610da56000830184610d81565b92915050565b600073ffffffffffffffffffffffffffffffffffffffff82169050919050565b6000610dd682610dab565b9050919050565b610de681610dcb565b8114610df157600080fd5b50565b600081359050610e0381610ddd565b92915050565b600060208284031215610e1f57610e1e610d19565b5b6000610e2d84828501610df4565b91505092915050565b600081519050919050565b600082825260208201905092915050565b6000819050602082019050919050565b610e6b81610d1e565b82525050565b6000610e7d8383610e62565b60208301905092915050565b6000602082019050919050565b6000610ea182610e36565b610eab8185610e41565b9350610eb683610e52565b8060005b83811015610ee7578151610ece8882610e71565b9750610ed983610e89565b925050600181019050610eba565b5085935050505092915050565b60006020820190508181036000830152610f0e8184610e96565b905092915050565b610f1f81610dcb565b82525050565b6000602082019050610f3a6000830184610f16565b92915050565b60008115159050919050565b610f5581610f40565b82525050565b600061010082019050610f71600083018b610d81565b610f7e602083018a610f16565b610f8b6040830189610d81565b610f986060830188610d81565b610fa56080830187610d81565b610fb260a0830186610d81565b610fbf60c0830185610d81565b610fcc60e0830184610f4c565b9998505050505050505050565b60008060408385031215610ff057610fef610d19565b5b6000610ffe85828601610df4565b925050602061100f85828601610d3f565b9150509250929050565b600080604083850312156110305761102f610d19565b5b600061103e85828601610d3f565b925050602061104f85828601610d3f565b9150509250929050565b61106281610dcb565b82525050565b61107181610f40565b82525050565b6101008201600082015161108e6000850182610e62565b5060208201516110a16020850182611059565b5060408201516110b46040850182610e62565b5060608201516110c76060850182610e62565b5060808201516110da6080850182610e62565b5060a08201516110ed60a0850182610e62565b5060c082015161110060c0850182610e62565b5060e082015161111360e0850182611068565b50505050565b60006101008201905061112f6000830184611077565b92915050565b600082825260208201905092915050565b7f4f6e6c7920706f736974696f6e2063726561746572206d6179204d6f6469667960008201527f20706f736974696f6e0000000000000000000000000000000000000000000000602082015250565b60006111a2602983611135565b91506111ad82611146565b604082019050919050565b600060208201905081810360008301526111d181611195565b9050919050565b7f506f736974696f6e20497320436c6f7365640000000000000000000000000000600082015250565b600061120e601283611135565b9150611219826111d8565b602082019050919050565b6000602082019050818103600083015261123d81611201565b9050919050565b7f4e487b7100000000000000000000000000000000000000000000000000000000600052601160045260246000fd5b600061127e82610d1e565b915061128983610d1e565b92508282019050808211156112a1576112a0611244565b5b92915050565b7f204d617070696e67206e6f7420466f756e642000000000000000000000000000600082015250565b60006112dd601383611135565b91506112e8826112a7565b602082019050919050565b6000602082019050818103600083015261130c816112d0565b9050919050565b600061131e82610d1e565b915061132983610d1e565b925082820261133781610d1e565b9150828204841483151761134e5761134d611244565b5b5092915050565b7f204f6e6c79204f776e6572206d6179204d6f64696679205374616b696e67205060008201527f6572696f64200000000000000000000000000000000000000000000000000000602082015250565b60006113b1602683611135565b91506113bc82611355565b604082019050919050565b600060208201905081810360008301526113e0816113a4565b9050919050565b7f204f6e6c79204f776e6572206d6179204d6f64696679205374616b696e67206460008201527f6174657320000000000000000000000000000000000000000000000000000000602082015250565b6000611443602583611135565b915061144e826113e7565b604082019050919050565b6000602082019050818103600083015261147281611436565b9050919050565b7f4e487b7100000000000000000000000000000000000000000000000000000000600052601260045260246000fd5b60006114b382610d1e565b91506114be83610d1e565b9250826114ce576114cd611479565b5b82820490509291505056fea2646970667358221220baa264bb70c3436a21e0d5bd772bf0ef6f7892570acb27dd5d02df5b583d792a64736f6c63430008110033",
  "linkReferences": {},
  "deployedLinkReferences": {}
}